:020000040808EA
:100000000000080898340808000006000A000501EE
:0800100004024C040000000092
:100018005830080809480A4908B5884205D0094AED
:10002800824202D0121A02F09BFF0748074A0021B9
:10003800121A02F0A0FF064808BD00BF0004002005
:10004800EC3308088404002084040020800B00207E
:10005800800B002070B501F053FA074B074C1E4681
:10006800E41AA4080025A54204D056F8253098477C
:100078000135F8E770BD00BFA8330808E033080869
:1000880000F00AB908B500F001FABDE8084001F02F
:10009800F9B900F033BC00F039BC0078B0FA80F050
:1000A8004009704701230370704700002DE9F041B3
:1000B8000B2001F0BFFC02F077FBDFF8A4801E4F95
:1000C800C8F800000C2001F0B5FC02F06DFB3860A8
:1000D8000D2001F0AFFC02F067FB184E184D3060A0
:1000E8000E2001F0A7FC02F05FFB28600F2001F052
:1000F800A1FC02F059FB134BD8F800201860124BF2
:1001080004461A601149386802F056FC104B0F4932
:100118001860306802F050FC0E4B0C4918602868D3
:1001280002F04AFC0C4B09491860204602F044FCD6
:100138000A4B1860BDE8F081C0040020B804002014
:100148008C040020A4040020B40400200080824312
:10015800980400209C040020C4040020AC04002063
:10016800BC04002010B50446A8B03F4908A802F016
:1001780042FF3E4B0222196804A801F054FB04997F
:1001880008A802F029FF04A801F0C8FA384908A80D
:1001980002F022FF374B0222196804A801F043FB42
:1001A800049908A802F018FF04A801F0B7FA324928
:1001B80008A802F011FF314B0022196804A801F0C9
:1001C80032FB049908A802F007FF04A801F0A6FA78
:1001D8002B4908A802F000FF2A4B0222196804A83C
:1001E80001F021FB049908A802F0F6FE04A801F02A
:1001F80095FA254908A802F0EFFE244B0222196857
:1002080004A801F010FB049908A802F0E5FE04A870
:1002180001F084FA1E4908A802F0DEFE214604A86F
:1002280001F0E5FA1B4B08AA1B7804998DF80030F9
:1002380002A83C2300F084FF039C7CB16368013B67
:1002480063605BB9236820469B689847A368013BB5
:10025800A3601BB923682046DB68984704A801F00F
:100268005DFA28B010BD00BF6C3008089804002063
:100278007A3008089C04002089300808C40400204B
:100288009B300808B4040020AD300808AC040020F6
:10029800BC300808B00400201FB540F6FF711020DC
:1002A80001F0DFFBFFF702FF0649684601F07DFA1F
:1002B8006846FFF757FF684601F030FA05B05DF869
:1002C80004FB00BFBE300808F0B585B00F461446E1
:1002D800064600F037FA031BBB4205460AD93146E9
:1002E800684601F084FA6846FFF73CFF684601F06B
:1002F80015FA2C46204605B0F0BD00007FB54D4BE1
:100308004D49186802F056FC4C4C064628B94C4B2F
:100318001A684C4B1B689A421DDB23684A4C032B16
:1003280012D0464B0322494968461A6001F03DFA4B
:10033800226800216846FFF7C7FF2060684601F081
:10034800EDF94FF4FA6022E04049684601F02DFAD1
:1003580022683F4B53E03F4B19683F4B186802F047
:1003680029FC18B323683D4D022B13D002233C49C6
:100378006846236001F019FA2A6831466846FFF793
:10038800A3FF2860684601F0C9F94FF47A7001F0BC
:10039800F7F83EE03249684601F007FA314B2A681F
:1003A80019686846FFF790FF28602DE02E4B1D68FE
:1003B8002E4B2946186802F0F3FB28B92C4B284627
:1003C800196802F0F7FB18B323682A49012B68461D
:1003D800294C10D001F0E9F9226800216846FFF79E
:1003E80073FF2060684601F099F9144B01221A60E6
:1003F80047F23050CBE701F0D8F922681F4B196853
:100408006846FFF761FF2060684601F087F900E061
:1004180020601B49684601F0C8F91A4C1A4B22683B
:1004280019686846FFF750FF2060684601F076F9C2
:1004380004B070BDB404002000007A448804002091
:100448009004002014040020C8040020C7300808C5
:100458000804002010040020C40400209404002094
:10046800DB3008081804002000040020980400204D
:100478009C040020EB300808A80400200C0400208D
:10048800BE300808A00400200404002008B5FFF7C7
:100498000DFEFFF733FFBDE808404FF4FA7001F096
:1004A8006FB80000024B01221A7000F063B900BF58
:1004B800B004002070B50446C83001F02FF904F1EB
:1004C800B80001F02BF904F1A80001F027F904F1B4
:1004D800980001F023F914F1080608D004F1880502
:1004E800B54204D0103D284601F018F9F8E7204637
:1004F80070BD00002DE9F04700F1080604463546B6
:100508000022502380E80C0000F188093046214978
:10051800103601F04AF94E45F8D104F1980A1D4900
:10052800504604F1A80801F040F904F1B807194948
:10053800404601F03AF904F1C8061649384601F078
:1005480034F91449304601F030F92846114910357C
:1005580001F058F9A945F8D10F4B0E49C4F8883075
:10056800C4F88C30C4F89030504601F04BF9094972
:10057800404601F047F90749384601F043F9054973
:10058800304601F03FF9C823C4F894302046BDE84E
:10059800F08700BF633208080000C07F10B5064C22
:1005A80000F0E8F82046FFF7A5FF2046BDE8104018
:1005B800024A034901F07BBACC04002084040020DD
:1005C800BD04080808B5024B1B681B68019308BDE9
:1005D8001C00060808B5024B1B681B69019308BD7F
:1005E8001C00060808B5024B1B685B69019308BD2F
:1005F8001C00060808B5024B1B689B69019308BDDF
:100608001C00060808B5024B1B68DB69019308BD8E
:100618001C00060808B5024B1B681B6A019308BD3D
:100628001C00060808B5024B1B68DB6B019308BD6C
:100638002000060808B5024B1B681B6A019308BD19
:10064800AC01040808B5024B1B685B6A019308BD3E
:10065800AC01040808B5024B1B689B6A019308BDEE
:10066800AC01040808B5024B1B68DB6A019308BD9E
:10067800AC01040808B5024B1B681B6B019308BD4D
:10068800AC01040808B5024B1B685B6B019308BDFD
:10069800AC01040808B5024B1B681B6C019308BD2C
:1006A800AC01040808B5024B1B689B69019308BD9F
:1006B800C401040808B5024B1B685B6A019308BDB6
:1006C800C401040808B5024B1B689B6A019308BD66
:1006D800C401040808B5024B1B68DB6A019308BD16
:1006E800C401040808B5024B1B681B6B019308BDC5
:1006F800C401040808B5024B1B685B6B019308BD75
:10070800C401040808B5024B1B689B6B019308BD24
:10071800C401040808B5024B1B681B6C019308BD93
:10072800C401040808B5024B1B681B6B019308BD84
:10073800D001040808B5024B1B685B68019308BD2B
:100748009C01040808B5024B1B685B69019308BD4E
:100758009C01040808B5024B1B68DB69019308BDBE
:10076800B401040808B5024B1B681B6A019308BD55
:10077800B401040808B5024B1B681B68019308BD47
:10078800B001040808B5024B1B685B68019308BDFB
:10079800B001040808B5024B1B68DB68019308BD6B
:1007A800B001040808B5024B1B689B6A019308BD99
:1007B800B001040808B5024B1B681B6B019308BD08
:1007C800B001040808B5024B1B689B6F019308BD74
:1007D800B001040808B5024B1B681B6A019308BDE9
:1007E800CC01040808B5024B1B68DB6B019308BDFC
:1007F800CC01040808B5024B1B685B68019308BD6F
:10080800C801040808B5024B1B689B68019308BD22
:10081800C801040808B5024B1B68DB68019308BDD2
:10082800C801040808B5024B1B681B69019308BD81
:10083800C801040808B5024B1B685B69019308BD31
:10084800C801040808B5024B1B689B69019308BDE1
:10085800C801040808B5024B1B68DB69019308BD91
:10086800C801040808B5024B1B681B6A019308BD40
:10087800C801040808B5024B1B681B6B019308BD2F
:10088800C801040808B5024B1B685B6B019308BDDF
:10089800C801040808B5024B1B685B68019308BDD2
:1008A800A401040808B5024B1B685B69019308BDE5
:1008B800A401040808B5024B1B68DB6C019308BD52
:1008C800A401040808B5024B1B685B6D019308BDC1
:1008D800A401040808B5034B1B68D3F890300193B2
:1008E80008BD0000A401040808B5034B1B68D3F831
:1008F8009C30019308BD0000A401040808B5024B10
:100908001B681B68019308BDA001040808B5024BC9
:100918001B685B68019308BDA001040808B5024B79
:100928001B689B68019308BDA001040808B5024B29
:100938001B68DB6A019308BDA001040808B5024BD7
:100948001B681B6B019308BDA001040810B5044681
:1009580003689B689847A368013BA3602BB9236889
:100968002046BDE81040DB68184710BD10B50446A6
:10097800006828B14368013B43600BB9FFF7E6FF05
:10098800204610BD00231A464068FFF733BF0022F7
:1009980002214068FFF73EBF002211464068FFF77A
:1009A80031BF002211464068FFF73CBF00231A46BA
:1009B80019464068FFF73EBF00231A4619464068AB
:1009C800FFF740BF002281F001014068FFF742BFF6
:1009D80000224068FFF74EBF002211464068FFF72B
:1009E80051BF002211464068FFF73CBFF0B51746DB
:1009F80087B0054604A800F03FFA002606AC384642
:100A080044F80C6D02F01BFB0A4B009681B25B6840
:100A180022463846FFF706FE20B13146284600F048
:100A28003BFA03E02146284600F02EFA284607B094
:100A3800F0BD00BFCC060020024B034A1A6000221A
:100A48005A607047A40500200C3108087047F8B5B3
:100A5800064615460C468F18BC4206D0336814F873
:100A6800011B9B6830469847F6E72846F8BD0022E8
:100A7800007CFFF7DFBD0021007CFFF7E3BD00210C
:100A8800007CFFF7E7BD0021007CFFF7EBBD0021EC
:100A9800007CFFF7EFBD10B50446FFF7FCFA2046CF
:100AA80010BD000010B5044608464FF47A73A360E1
:100AB800044B0021207461602360FFF7EBFD2046A2
:100AC80010BD00BF403108080021007CFFF7DABDE7
:100AD80010B5836804460BB900F0EEFFC368984769
:100AE800A3681BB103222146204698472046BDE84B
:100AF8001040FFF7D0BA704741747047007CFFF789
:100B080009BE007CFFF7DEBD007CFFF7EBBD007C73
:100B1800FFF7E0BD007CFFF7EDBD10B50446FFF719
:100B2800BAFA204610BD70B5457C04460E4625B974
:100B3800007CFFF7EFFD002805DD3146207CBDE88D
:100B48007040FFF7B7BD284670BD000010B50446D9
:100B580008461146002262604FF47A72A260054A84
:100B680020742260012262741A46FFF79BFD20461A
:100B780010BD00BF68310808007CFFF7C3BD000046
:100B880038B50C4D296811F0010411D12846FFF73A
:100B980084FA68B1084A2146084B0948FFF7D6FF8E
:100BA8002846FFF77FFA074A0749054800F07FFF04
:100BB800034838BD4406002048060020C005002030
:100BC800AC05002084040020FF0A08080022114612
:100BD8004068FFF727BE2DE9FF41002604AC054613
:100BE80010468846174644F8046D02F028FA009625
:100BF80081B2D8F8043022463846FFF713FD20B1F9
:100C08003146284600F048F903E02146284600F01E
:100C18003BF9284604B0BDE8F0810022114640683F
:100C2800FFF720BE002211464068FFF72BBE0022C6
:100C38004068FFF71FBE002281F001014068FFF7FE
:100C480009BE00231A4619464068FFF7FBBD00237A
:100C58001A4619464068FFF7EDBD00221146406864
:100C6800FFF7D0BD002202214068FFF7D3BD002363
:100C78001A464068FFF7BEBD38B50C4C28252A46F1
:100C88000021204602F077F94FF0FF33636025809A
:100C9800074C042320466360064B2C2540F8083B8C
:100CA8002A46002102F067F9258138BD0007002097
:100CB800CC0600209831080810B58368044613B1A3
:100CC800032201469847204610BD4174704770477B
:100CD8000021007CFFF78EBC0121007CFFF78ABC55
:100CE800007CFFF77FBC007CFFF774BC38B5044676
:100CF800007C0D46FFF776FC002801DC607C20B103
:100D08002946207CFFF77EFC012038BD007CFFF7D8
:100D180081BC10B50446FFF7BEF9204610BD00009F
:100D280010B50446002363604FF47A73A360054B43
:100D3800084623600123217463741146FFF742FCBF
:100D4800204610BDCC31080810B5044614220021F5
:100D580002F011F9054B20466360054BE36040F251
:100D6800011323818123238210BD00BFAD0700201A
:100D78002C07002030B50E4D87B001A8FFF7E4FF1F
:100D8800296811F0010410D12846FFF786F960B1EF
:100D980001AA21460748FFF7C3FF2846FFF782F953
:100DA800054A0649034800F082FE024807B030BDF4
:100DB80028070020B008002084040020D70C080869
:100DC80010B504461422002102F0D5F8054B204640
:100DD8006360054BE36040F2011323818123238282
:100DE80010BD00BF60090020C808002010B50E4CD7
:100DF80086B001A8FFF7E4FF2368DB0710D420467C
:100E0800FFF74BF960B101AA01210848FFF788FFF5
:100E18002046FFF747F9064A0649044800F047FE0E
:100E2800024806B010BD00BFC40800204C090020CD
:100E380084040020D70C0808704710B50446FFF753
:100E48002AF9204610BDF8B50F4600F10806051D21
:100E5800002416F8011D0A22384600F0FAFBAE42BB
:100E6800044407D0002CF4D02E21384600F0C4FBEF
:100E78000444EEE72046F8BD024A026000224260C0
:100E8800704700BFFC310808024A02600A684260E5
:100E9800704700BFFC310808014A41600260704792
:100EA800FC31080810B59DF8084044EA032343EADA
:100EB800024242EA0161416010BD000037B5044DAD
:100EC80005609DF818500095FFF7ECFF03B030BDA2
:100ED800FC31080870470020704710B50446FFF73A
:100EE800DAF8204610BD08B508B1FFF7F6FF08BDCF
:100EF80038B5C468D4B12378022B02D1E068FFF773
:100F080005FD65682DB12846FFF7D6FE2846FFF790
:100F1800C2F8A5682DB12846FFF7CEFE2846FFF790
:100F2800BAF82046BDE83840FFF7B5B838BD13B564
:100F3800044691E8050000234B600B602060626066
:100F480001A801930093FFF711FD204602B010BDE0
:100F58000B68036013B15A6801325A607047F7B5DD
:100F68000C4606460F4654F8043B02AD45F8083DCA
:100F7800214601A8FFF7ECFF29463046FFF7D7FFC7
:100F880001A8FFF7F3FC2046FFF7F0FC3846FFF70F
:100F980082F8304603B0F0BD13B50B46044603C8CB
:100FA8008DE8030093E8030084E803009DE803004C
:100FB80083E8030002B010BD826810B50AB900F0DA
:100FC8007BFDC368BDE81040184708B5006800F10C
:100FD8001001FFF7F1FF08BD826810B50AB900F0EB
:100FE8006BFDC368BDE81040184708B5006800F1FC
:100FF8001001FFF7F1FF08BD38B5002383608B6847
:1010080004460D462BB102229847EB68E360AB68B3
:10101800A360204638BD00002DE9F0414FF69C73CF
:1010280004684FF0020086B0B1F904208B800023D9
:101038000F688DF800300B60D4E84F1F994203D138
:10104800C4E8450F002DF7D102D08DF800106BE0F1
:1010580014F10C051CBFE7602282BFF35F8F18BF35
:101068001F4601236370BFF35F8F04F1080300205C
:1010780053E8006F43E80002002AF9D1BFF35F8FFD
:10108800002E51D0FFF716FC20B129463046FFF755
:1010980093FF43E031466846FFF7AEFFE068B4F9D6
:1010A800105008B101F0B0FF04901020ADF81450B2
:1010B800FEF7EFFF054630B34FF00008C0F8088090
:1010C8001820FEF7E6FF0446C0B1C0F808800146C4
:1010D8006846FFF761FF029BA268A360039B029228
:1010E800E268E360BDF814300392A3824FF69C7364
:1010F800ADF81430049BCDF8108023610D4B2C60A3
:10110800EB600D4BAB600498FFF700FC6846FFF7F7
:10111800D3FD002229460948FFF7D4FB3046FFF7E4
:10112800CBFD3046FEF7B7FF3846FFF7EFFB06B0BA
:10113800BDE8F081D30F080831120808D90A080859
:101148002DE9F04F8BB007AD4FF0000B06469946DE
:1011580014200C230F4690469DF850A0C5F804B003
:10116800C5F808B00793FEF794FF044638B180F835
:1011780000B080F801B0C0F804B0C0F808B000238F
:10118800102003940493FEF784FF28B101234360E1
:101198008360234BC4600360224B049008200893AB
:1011A800FEF777FF044628B1039B04A940F8043BE7
:1011B800FFF7CEFE00955FFA8AF34A464146384665
:1011C8000994FFF707FBB8B9039B5B7803F0FF02AC
:1011D80093B94FF69C7305A903A80592ADF818308A
:1011E800FFF71AFF0598FFF791FB05A80999FFF784
:1011F800B6FE06A8FFF7BAFB039B04A906A8059349
:10120800FFF7A6FE05A93046FFF791FE06A8FFF7EF
:10121800ADFB04A8FFF7AAFB30460BB0BDE8F08F82
:101228001032080899130808022AF8B5044606D0AF
:10123800032A17D0012A20D10B6803601DE018206B
:101248000E68FEF726FF054650B13146FFF7D4FE7B
:101258003069B6F9147008B101F0D6FE2861AF8282
:1012680025600AE0046844B12069FFF74FFB204677
:10127800FFF722FD2046FEF70EFF0020F8BD38B527
:10128800002383608B6804460D462BB102229847E1
:10129800EB68E360AB68A360204638BD022A70B5EE
:1012A800044606D0032A11D0012A17D10B6803601F
:1012B80014E014200E68FEF7ECFE054620B1314616
:1012C800FFF7DDFF337C2B74256007E004682CB141
:1012D8002046FFF7F1FC2046FEF7DDFE002070BD3A
:1012E800F0B50C46BFF35F8F87B0002350E8006F5E
:1012F80040E80032002AF9D1BFF35F8F002E3ED0BC
:101308001846FFF7D7FA074620B121463046FFF7BF
:1013180063FE2EE0314601A8FFF7B1FF23781020C5
:101328008DF81430FEF7B5FE0546D0B1876014205D
:10133800FEF7AFFE044678B18760014601A8FFF7C3
:101348002BFE039BA268A360049B0392E268E36000
:101358009DF81430049223740A4B2C60EB600A4BFE
:10136800AB6001A8FFF7A8FC002229460748FFF751
:10137800A9FA3046FFF7A0FC3046FEF78CFE07B00E
:10138800F0BD00BFF30F0808A5120808D90A08081D
:1013980030B5044685B00D4668461146FFF7DFFDB7
:1013A8007CB124B228460DB101F02EFE029002A9AC
:1013B8006846ADF80C40FFF72FFE0298FFF7A6FA33
:1013C8001DE04FF0010200988DF80840D0E84F3F2B
:1013D800A34203D1C0E8412F0029F7D102D08DF8EC
:1013E80008300CE010F10C014FF0010318BF037333
:1013F800BFF35F8F043000F8033CFFF771FF01A8CB
:10140800FFF7B4FA05B030BD08B5184B33B1FFF794
:10141800B1FC03681B69984700281EDC144B33B1E4
:10142800FFF7AEFB03681B699847002818DC114BCF
:101438000BB1AFF30080104B0BB1AFF300800F4B33
:101448000BB1AFF300800E4B7BB1FFF7CFFC036805
:101458001B699847002806DC08BDAFF30080DDE76C
:10146800AFF30080E3E7AFF3008008BD00000000A1
:101478000000000000000000000000000000000064
:101488000000000008B5FFF7BFFFFFF75BF9014B4D
:10149800186008BDAC0A00200248034A0349121A22
:1014A80001F05EBD0040024004400240E8330808F5
:1014B80007B5002300931A466FF07701FFF714FA77
:1014C80003B05DF804FB000007B543880A2B08D079
:1014D800502B09D1094B1B683BB103B05DF804EBF5
:1014E8001847FFF7E5FF06E0002300931A466FF060
:1014F8007701FFF7F9F903B05DF804FB640A0020EF
:1015080038B5104C104D2368AB42104B0CBF01226C
:1015180000221A7002D0FFF7BFFF2560FFF70AF913
:10152800044601F031FD0A4B13B12046AFF30080A9
:1015380000210748FFF756F9BDE838400021054863
:10154800FFF7C8B9004002401E1C279A680A00200D
:1015580000000000D114080810B50446FFF7ACFBE2
:10156800204610BD034800238360034A034900F066
:101578009EBA00BF6C0A0020840400206115080888
:101588000021FFF78FB90000024B1A68024B1A605E
:10159800704700BF1C0400207C0A0020014A024B4F
:1015A8001A60704708330808800A0020F8B5064614
:1015B8000D468F180024BD420CD0336815F8011B66
:1015C8009B6830469847002801DB0444F3E7002C69
:1015D80008BF04462046F8BD70B505460C460846C7
:1015E80049B101F02CFD2B68024621462846BDE88A
:1015F8007040DB68184770BD03689B681847012A6C
:1016080098BF0A2230B50B468BB000218DF8241004
:101618000DF12304B3FBF2F505FB1233DBB2092B02
:1016280094BF30333733DBB2214604F801392B46F7
:10163800002DEFD1FFF7D0FF0BB030BD10B422B9A9
:101648000368C9B29B6810BC1847D2B210BCFFF738
:10165800D6BFFFF7F3BF00002DE9F14F80460D46D6
:1016680017461E46002200234046294600F09AFFEE
:1016780020B12D23337005F10045013600230124E4
:101688000A22D9B28F4202D954430133F9E72046DE
:1016980000F0B0FC42462B4600F012FD82468B4615
:1016A80001F0B4FA8046894600F0D4FC02460B46A5
:1016B8005046594600F050FB0022174B00F086FFB9
:1016C80018B118F1010849F10009E51722462B461F
:1016D8004046494601F082FA01230A22314600F0C9
:1016E800CAF8AFB1304601F0AAFC2E2333540130BA
:1016F800064422462B464046494601F06FFA3B46CF
:10170800104631460A2201B0BDE8F04F00F0B3B8E8
:1017180001B0BDE8F08F00BF0000E03F10B50446FF
:101728000068FFF7F3F8204610BD10B504460068BE
:1017380008B1FFF7EBF800232360A360636010BDD6
:1017480038B504460D4600680131FFF7E7F810B1D7
:1017580084E82100012038BD10B50368044613B1A0
:1017680043688B4207D22046FFF7EAFF20B1A368FF
:101778000BB922681370012010BD70B50E461146D2
:1017880004461546FFF7E8FF18B92046FFF7CDFFD6
:1017980009E02A463146A560206801F0E1FB22688D
:1017A800A3680021D154204670BD38B500230446F3
:1017B80003604360836003730D4639B1084601F046
:1017C8003EFC294602462046FFF7D7FF204638BD93
:1017D800884210B50B46044607D0096819B19A68C3
:1017E800FFF7CBFF01E0FFF7A0FF204610BD10B5C3
:1017F800044600230360436083600373FFF7E8FF38
:10180800204610BD38B505460C4641B1084601F0E2
:1018180016FC214602462846FFF7AFFF01E0FFF716
:1018280084FF284638BD30B5044600238BB00360DA
:10183800436083600373D5B2084600F0EDFB01AB4B
:101848002A46FFF709FF01A92046FFF7DBFF2046DC
:101858000BB030BD10B5044601F0F1FB0138231878
:101868002046984206D20278197800F8011B03F83E
:101878000129F6E710BD70B50C46911E222920D823
:101888002546294610B9234430220EE0B0FBF2F673
:1018980002FB1600C1B2092805F8011B94BF3031BC
:1018A800573105F8011C3046EBE7994202D201F89E
:1018B800012BFAE7002320460B70FFF7CBFF2046E9
:1018C80070BD002070BD00004FF6FF72034B002072
:1018D800187058809A80FEF7DDBF00BF840A002088
:1018E800704710B50446FEF7D6FB204610BD000031
:1018F80070B504460E46074B0025036040F80C5FA0
:10190800FEF710FF30462671FEF724FFA56020463B
:1019180070BD00BF3C3308080079FEF723BF000004
:1019280038B50B4D296811F001040FD12846FEF790
:10193800B4FB58B121460748FFF7B4F82846FEF72C
:10194800B1FB054A0549034800F0B1F8014838BD24
:101958008C0A0020900A002084040020550A0808F8
:1019680013B5084C00231A46194600932046FFF782
:10197800A5FA2046044A054902B0BDE8104000F027
:1019880096B800BFA40A002084040020410E08086D
:1019980070B5114E114D124C00213046FFF7A8FFCB
:1019A8003046104E2A46214600F081F80121304683
:1019B800FFF79EFF30460C4E2A46214600F077F886
:1019C80002213046FFF794FF2A4621463046BDE8FB
:1019D800704000F06CB800BFB00A002084040020FA
:1019E800E9180808C00A0020D00A002010B50446EB
:1019F8000F48FFF791FF28B1A4F10D03022B01D87E
:101A0800002010BDFFF78CFFFFF75EF808B1012C2E
:101A1800F6D9FFF7B5F8FFF7AFF818B1A4F112033C
:101A2800012BEDD92E2C8CBF0020012010BD00BF4A
:101A3800B00A002010B5044609289CBF0A34A4B295
:101A48002046FFF7D3FF50B103212046FEF79AFE48
:101A5800032804D12046BDE81040FEF7ABBE0020A5
:101A680010BD38B504460D46FFF7C0FFF0B104219C
:101A78002046FEF787FE042805D1A9B22046BDE816
:101A88003840FEF78FBE02212046FEF77BFE022873
:101A98000CD12046FEF77EFE012801D0042805D18E
:101AA80029462046BDE83840FEF78CBE38BD0B46B7
:101AB8000146184601F046BA08B5FEF737FF0000A0
:101AC800184B1A68D1075CBF01221A60164B1A68B6
:101AD800D2075CBF01221A60144B1A68D0075CBF9A
:101AE80001221A60124B1A68D1075CBF01221A60E2
:101AF800104B1A68D2075CBF01221A600E4B1A6895
:101B0800D0075CBF01221A600C4B1A68D1075CBF72
:101B180001221A600A4B1A68D2075CBF01221A60B8
:101B2800704700BFFC0A0020F80A0020F40A0020D1
:101B3800F00A0020EC0A0020E80A0020E40A00204D
:101B4800E00A0020244B1A68D0075CBF01221A6003
:101B5800224B1A68D1075CBF01221A60204B1A6811
:101B6800D2075CBF01221A601E4B1A68D0075CBFFF
:101B780001221A601C4B1A68D1075CBF01221A6047
:101B88001A4B1A68D2075CBF01221A60184B1A68F0
:101B9800D0075CBF01221A60164B1A68D1075CBFD8
:101BA80001221A60144B1A68D2075CBF01221A601E
:101BB800124B1A68D0075CBF01221A60104B1A68D2
:101BC800D1075CBF01221A600E4B1A68D2075CBFAE
:101BD80001221A60704700BF2C0B0020280B002040
:101BE800240B0020200B00201C0B0020180B0020C9
:101BF800140B0020100B00200C0B0020080B0020F9
:101C0800040B0020000B0020244B1A68D0075CBF8F
:101C180001221A60224B1A68D1075CBF01221A60A0
:101C2800204B1A68D2075CBF01221A601E4B1A6843
:101C3800D0075CBF01221A601C4B1A68D1075CBF31
:101C480001221A601A4B1A68D2075CBF01221A6077
:101C5800184B1A68D0075CBF01221A60164B1A6825
:101C6800D1075CBF01221A60144B1A68D2075CBF07
:101C780001221A60124B1A68D0075CBF01221A6051
:101C8800104B1A68D1075CBF01221A600E4B1A6804
:101C9800D2075CBF01221A60704700BF5C0B0020AE
:101CA800580B0020540B0020500B00204C0B002038
:101CB800480B0020440B0020400B00203C0B002068
:101CC800380B0020340B0020300B0020184B1A680A
:101CD800D1075CBF01221A60164B1A68D2075CBF95
:101CE80001221A60144B1A68D0075CBF01221A60DF
:101CF800124B1A68D1075CBF01221A60104B1A6890
:101D0800D2075CBF01221A600E4B1A68D0075CBF6D
:101D180001221A600C4B1A68D1075CBF01221A60B5
:101D28000A4B1A68D2075CBF01221A60704700BFCD
:101D38007C0B0020780B0020740B0020700B002017
:101D48006C0B0020680B0020640B0020600B002047
:101D580081F0004102E000BF83F0004330B54FEA54
:101D680041044FEA430594EA050F08BF90EA020FC1
:101D78001FBF54EA000C55EA020C7FEA645C7FEA54
:101D8800655C00F0E2804FEA5454D4EB5555B8BF77
:101D98006D420CDD2C4480EA020281EA030382EAE8
:101DA800000083EA010180EA020281EA0303362D7A
:101DB80088BF30BD11F0004F4FEA01314FF4801C4D
:101DC8004CEA113102D0404261EB410113F0004F5F
:101DD8004FEA03334CEA133302D0524263EB430316
:101DE80094EA050F00F0A780A4F10104D5F1200EB4
:101DF8000DDB02FA0EFC22FA05F2801841F100010F
:101E080003FA0EF2801843FA05F359410EE0A5F1E2
:101E180020050EF1200E012A03FA0EFC28BF4CF013
:101E2800020C43FA05F3C01851EBE37101F00045C9
:101E380007D54FF0000EDCF1000C7EEB00006EEBD6
:101E48000101B1F5801F1BD3B1F5001F0CD3490860
:101E58005FEA30004FEA3C0C04F101044FEA4452B7
:101E680012F5800F80F09A80BCF1004F08BF5FEA3E
:101E7800500C50F1000041EB045141EA050130BD1E
:101E88005FEA4C0C404141EB010111F4801FA4F1C1
:101E98000104E9D191F0000F04BF01460020B1FA16
:101EA80081F308BF2033A3F10B03B3F120020CDA4E
:101EB8000C3208DD02F1140CC2F10C0201FA0CF02C
:101EC80021FA02F10CE002F11402D8BFC2F1200C91
:101ED80001FA02F120FA0CFCDCBF41EA0C01904047
:101EE800E41AA2BF01EB0451294330BD6FEA040490
:101EF8001F3C1CDA0C340EDC04F11404C4F120027B
:101F080020FA04F001FA02F340EA030021FA04F38C
:101F180045EA030130BDC4F10C04C4F1200220FAE3
:101F280002F001FA04F340EA0300294630BD21FA21
:101F380004F0294630BD94F0000F83F4801306BFE7
:101F480081F480110134013D4EE77FEA645C18BFDB
:101F58007FEA655C29D094EA050F08BF90EA020F72
:101F680005D054EA000C04BF1946104630BD91EA6A
:101F7800030F1EBF0021002030BD5FEA545C05D16D
:101F88004000494128BF41F0004130BD14F58004AC
:101F98003CBF01F5801130BD01F0004545F0FE4120
:101FA80041F470014FF0000030BD7FEA645C1ABF55
:101FB800194610467FEA655C1CBF0B46024650EA8C
:101FC800013406BF52EA033591EA030F41F40021B8
:101FD80030BD00BF90F0000F04BF0021704730B53E
:101FE8004FF4806404F132044FF000054FF0000113
:101FF80050E700BF90F0000F04BF0021704730B5D4
:102008004FF4806404F1320410F0004548BF4042A8
:102018004FF000013EE700BF42004FEAE2014FEAFD
:1020280031014FEA02701FBF12F07F4393F07F4FD8
:1020380081F06051704792F0000F14BF93F07F4F0A
:10204800704730B54FF4607401F0004521F000414D
:1020580020E700BF50EA010208BF704730B54FF0D3
:1020680000050AE050EA010208BF704730B511F0D8
:10207800004502D5404261EB41014FF4806404F110
:1020880032045FEA915C3FF4DCAE4FF003025FEA92
:10209800DC0C18BF03325FEADC0C18BF033202EB1A
:1020A800DC02C2F1200300FA03FC20FA02F001FA74
:1020B80003FE40EA0E0021FA02F11444C1E600BF13
:1020C80070B54FF0FF0C4CF4E06C1CEA11541DBFC6
:1020D8001CEA135594EA0C0F95EA0C0F00F0DEF891
:1020E8002C4481EA030621EA4C5123EA4C5350EA76
:1020F800013518BF52EA033541F4801143F48013C7
:1021080038D0A0FB02CE4FF00005E1FB02E506F057
:102118000042E0FB03E54FF00006E1FB03569CF0AC
:10212800000F18BF4EF0010EA4F1FF04B6F5007FB2
:1021380064F5407404D25FEA4E0E6D4146EB060624
:1021480042EAC62141EA55514FEAC52040EA5E50AD
:102158004FEACE2EB4F1FD0C88BFBCF5E06F1ED857
:10216800BEF1004F08BF5FEA500E50F1000041EB8E
:10217800045170BD06F0004646EA010140EA02003B
:1021880081EA0301B4EB5C04C2BFD4EB0C0541EA5D
:10219800045170BD41F480114FF0000E013C00F372
:1021A800AB8014F1360FDEBF002001F0004170BD96
:1021B800C4F10004203C35DA0C341BDC04F11404AF
:1021C800C4F1200500FA05F320FA04F001FA05F23B
:1021D80040EA020001F0004221F0004110EBD37008
:1021E80021FA04F642EB06015EEA430E08BF20EA34
:1021F800D37070BDC4F10C04C4F1200500FA04F3D7
:1022080020FA05F001FA04F240EA020001F0004168
:1022180010EBD37041F100015EEA430E08BF20EADB
:10222800D37070BDC4F1200500FA05F24EEA020E23
:1022380020FA04F301FA05F243EA020321FA04F052
:1022480001F0004121FA04F220EA020000EBD37009
:102258005EEA430E08BF20EAD37070BD94F0000F09
:102268000FD101F00046400041EB010111F4801F3D
:1022780008BF013CF7D041EA060195F0000F18BFEE
:10228800704703F00046520043EB030313F4801F2A
:1022980008BF013DF7D043EA0603704794EA0C0FE4
:1022A8000CEA135518BF95EA0C0F0CD050EA4106FA
:1022B80018BF52EA4306D1D181EA030101F0004177
:1022C8004FF0000070BD50EA410606BF104619469F
:1022D80052EA430619D094EA0C0F02D150EA0136AB
:1022E80013D195EA0C0F05D152EA03361CBF1046EC
:1022F80019460AD181EA030101F0004141F0FE418B
:1023080041F470014FF0000070BD41F0FE4141F40E
:10231800780170BD70B54FF0FF0C4CF4E06C1CEA0E
:1023280011541DBF1CEA135594EA0C0F95EA0C0FC3
:1023380000F0A7F8A4EB050481EA030E52EA03357E
:102348004FEA013100F088804FEA03334FF080559F
:1023580045EA131343EA12634FEA022245EA1115CC
:1023680045EA10654FEA00260EF000419D4208BF7D
:10237800964244F1FD0404F5407402D25B084FEA2A
:102388003202B61A65EB03055B084FEA32024FF4D6
:1023980080104FF4002CB6EB020E75EB030E22BF33
:1023A800B61A754640EA0C005B084FEA3202B6EBF3
:1023B800020E75EB030E22BFB61A754640EA5C00A2
:1023C8005B084FEA3202B6EB020E75EB030E22BF32
:1023D800B61A754640EA9C005B084FEA3202B6EB33
:1023E800020E75EB030E22BFB61A754640EADC00F2
:1023F80055EA060E18D04FEA051545EA16754FEA54
:1024080006164FEAC30343EA52734FEAC2025FEA71
:102418001C1CC0D111F4801F0BD141EA00014FF000
:1024280000004FF0004CB6E711F4801F04BF0143D1
:102438000020B4F1FD0C88BFBCF5E06F3FF6AFAEED
:10244800B5EB030C04BFB6EB020C5FEA500C50F17D
:10245800000041EB045170BD0EF0004E4EEA113100
:1024680014EB5C04C2BFD4EB0C0541EA045170BD07
:1024780041F480114FF0000E013C90E645EA060E4B
:102488008DE60CEA135594EA0C0F08BF95EA0C0F79
:102498003FF43BAF94EA0C0F0AD150EA01347FF4C1
:1024A80034AF95EA0C0F7FF425AF104619462CE798
:1024B80095EA0C0F06D152EA03353FF4FDAE1046FB
:1024C800194622E750EA410618BF52EA43067FF44C
:1024D800C5AE50EA41047FF40DAF52EA43057FF4DC
:1024E800EBAE12E74FF0FF3C06E000BF4FF0010CE7
:1024F80002E000BF4FF0010C4DF804CD4FEA410C4B
:102508007FEA6C5C4FEA430C18BF7FEA6C5C1BD017
:1025180001B050EA410C0CBF52EA430C91EA030F98
:1025280002BF90EA020F0020704710F1000F91EAF5
:10253800030F58BF994208BF90422CBFD8176FEAC3
:10254800E37040F0010070474FEA410C7FEA6C5C91
:1025580002D150EA013C07D14FEA430C7FEA6C5C98
:10256800D6D152EA033CD3D05DF8040B704700BFC4
:102578008446104662468C461946634600E000BF12
:1025880001B5FFF7B7FF002848BF10F1000F01BDE4
:102598004DF808EDFFF7F4FF0CBF012000205DF8AF
:1025A80008FB00BF4DF808EDFFF7EAFF34BF012034
:1025B80000205DF808FB00BF4DF808EDFFF7E0FFCD
:1025C80094BF012000205DF808FB00BF4DF808ED1E
:1025D800FFF7CEFF94BF012000205DF808FB00BF85
:1025E8004DF808EDFFF7C4FF34BF012000205DF867
:1025F80008FB00BF4A0011D212F5001211D20DD506
:102608006FF47873B3EB62520ED44FEAC12343F0F0
:10261800004343EA505323FA02F070474FF000009A
:10262800704750EA013002D14FF0FF3070474FF049
:102638000000704780F0004002E000BF81F00041D8
:1026480042001FBF5FEA410392EA030F7FEA226C50
:102658007FEA236C6AD04FEA1262D2EB1363C1BFE0
:10266800D218414048404140B8BF5B42192B88BF4F
:10267800704710F0004F40F4000020F07F4018BF72
:10268800404211F0004F41F4000121F07F4118BF92
:10269800494292EA030F3FD0A2F1010241FA03FC3A
:1026A80010EB0C00C3F1200301FA03F100F0004322
:1026B80002D5494260EB4000B0F5000F13D3B0F1EA
:1026C800807F06D340084FEA310102F10102FE2A59
:1026D80051D2B1F1004F40EBC25008BF20F00100C9
:1026E80040EA03007047490040EB000010F4000F77
:1026F800A2F10102EDD1B0FA80FCACF1080CB2EB0A
:102708000C0200FA0CF0AABF00EBC2505242184368
:10271800BCBFD0401843704792F0000F81F400010D
:1027280006BF80F400000132013BB5E74FEA4103E0
:102738007FEA226C18BF7FEA236C21D092EA030F4C
:1027480004D092F0000F08BF0846704790EA010FC6
:102758001CBF0020704712F07F4F04D1400028BFF3
:1027680040F00040704712F100723CBF00F50000D5
:10277800704700F0004343F0FE4040F4000070470B
:102788007FEA226216BF08467FEA236301464202B7
:1027980006BF5FEA412390EA010F40F480007047CA
:1027A8004FF0000304E000BF10F0004348BF404270
:1027B8005FEA000C08BF704743F0964301464FF0AC
:1027C80000001CE050EA010208BF70474FF0000308
:1027D8000AE000BF50EA010208BF704711F0004349
:1027E80002D5404261EB41015FEA010C02BF844619
:1027F8000146002043F0B64308BFA3F18053A3F578
:102808000003BCFA8CF2083AA3EBC25310DB01FABE
:1028180002FC634400FA02FCC2F12002BCF1004F42
:1028280020FA02F243EB020008BF20F001007047D3
:1028380002F1200201FA02FCC2F1200250EA4C0027
:1028480021FA02F243EB020008BF20EADC7070476D
:102858004FF0FF0C1CEAD0521EBF1CEAD15392EA7B
:102868000C0F93EA0C0F6FD01A4480EA010C400257
:1028780018BF5FEA41211ED04FF0006343EA5010B1
:1028880043EA5111A0FB01310CF00040B1F5000FF3
:102898003EBF490041EAD3715B0040EA010062F1A2
:1028A8007F02FD2A1DD8B3F1004F40EBC25008BF8C
:1028B80020F00100704790F0000F0CF0004C08BFAA
:1028C80049024CEA502040EA51207F3AC2BFD2F177
:1028D800FF0340EAC250704740F400004FF0000385
:1028E800013A5DDC12F1190FDCBF00F000407047BF
:1028F800C2F10002410021FA02F1C2F1200200FAFD
:1029080002FC5FEA310040F1000053EA4C0308BFC3
:1029180020EADC70704792F0000F00F0004C02BF14
:10292800400010F4000F013AF9D040EA0C0093F08F
:10293800000F01F0004C02BF490011F4000F013BE9
:10294800F9D041EA0C018FE70CEAD15392EA0C0F57
:1029580018BF93EA0C0F0AD030F0004C18BF31F0C2
:10296800004CD8D180EA010000F00040704790F098
:10297800000F17BF90F0004F084691F0000F91F03C
:10298800004F14D092EA0C0F01D142020FD193EA02
:102998000C0F03D14B0218BF084608D180EA01008A
:1029A80000F0004040F0FE4040F40000704740F066
:1029B800FE4040F4400070474FF0FF0C1CEAD05234
:1029C8001EBF1CEAD15392EA0C0F93EA0C0F69D090
:1029D800A2EB030280EA010C49024FEA402037D0FB
:1029E8004FF0805343EA111143EA10130CF00040F2
:1029F8008B4238BF5B0042F17D024FF4000C8B42E2
:102A080024BF5B1A40EA0C00B3EB510F24BFA3EBC1
:102A1800510340EA5C00B3EB910F24BFA3EB910391
:102A280040EA9C00B3EBD10F24BFA3EBD10340EAEB
:102A3800DC001B0118BF5FEA1C1CE0D1FD2A3FF631
:102A480050AF8B4240EBC25008BF20F001007047E6
:102A58000CF0004C4CEA50207F32C2BFD2F1FF0389
:102A680040EAC250704740F400004FF00003013ABA
:102A780037E792F0000F00F0004C02BF400010F45E
:102A8800000F013AF9D040EA0C0093F0000F01F072
:102A9800004C02BF490011F4000F013BF9D041EA94
:102AA8000C0195E70CEAD15392EA0C0F08D14202C7
:102AB8007FF47DAF93EA0C0F7FF470AF084676E79A
:102AC80093EA0C0F04D14B023FF44CAF08466EE773
:102AD80030F0004C18BF31F0004CCAD130F0004241
:102AE8007FF45CAF31F000437FF43CAF5FE700BF99
:102AF8004FF0FF3C06E000BF4FF0010C02E000BFC2
:102B08004FF0010C4DF804CD4FEA40024FEA410363
:102B18007FEA226C18BF7FEA236C11D001B052EA19
:102B2800530C18BF90EA010F58BFB2EB030088BFDF
:102B3800C81738BF6FEAE17018BF40F0010070474E
:102B48007FEA226C02D15FEA402C05D17FEA236C30
:102B5800E4D15FEA412CE1D05DF8040B704700BF77
:102B6800844608466146FFE70FB5FFF7C9FF00280E
:102B780048BF10F1000F0FBD4DF808EDFFF7F4FF47
:102B88000CBF012000205DF808FB00BF4DF808EDE0
:102B9800FFF7EAFF34BF012000205DF808FB00BF03
:102BA8004DF808EDFFF7E0FF94BF012000205DF825
:102BB80008FB00BF4DF808EDFFF7D2FF94BF0120D6
:102BC80000205DF808FB00BF4DF808EDFFF7C8FFCF
:102BD80034BF012000205DF808FB00BF53B94AB993
:102BE800002908BF00281CBF4FF0FF314FF0FF300D
:102BF80000F0A6B9ADF1080C6DE904CE00F02AF892
:102C0800DDF804E0DDE9022304B07047D0B5002206
:102C18000E4B06460F46FFF753FAFFF7EBFC044648
:102C2800FFF7D8F900220A4BFFF74AFA02460B468B
:102C380030463946FFF790F8FFF7DCFC23460022C0
:102C480042EA000210461946D0BD00BF0000F03D20
:102C58000000F0412DE9F04F8C460C460546099ED0
:102C6800002B4FD18A4217466BD9B2FA82FEBEF1C9
:102C7800000F0BD0CEF1200520FA05F501FA0EF36E
:102C880045EA030C02FA0EF700FA0EF5390CBCFB04
:102C9800F1F0BAB201FB10C300FB02F84FEA154C81
:102CA8004CEA0344A04509D9E41900F1FF3380F048
:102CB8002881A04540F2258102383C44C8EB040431
:102CC800B4FBF1F301FB134C03FB02F2ACB244EA90
:102CD8000C418A4209D9C91903F1FF3480F00F81E8
:102CE8008A4240F20C81023B39448A1A43EA004086
:102CF8000021002E63D022FA0EF2002386E80C0091
:102D0800BDE8F08F8B4207D9002E56D0002186E807
:102D180011000846BDE8F08FB3FA83F1002940F0AE
:102D28009380A34202D3824200F2FE80851A64EBAC
:102D380003039C460120002E41D086E82010BDE800
:102D4800F08F12B90127B7FBF2F7B7FA87FEBEF189
:102D5800000F36D1E41B4FEA17481FFA87F9012103
:102D6800B4FBF8F308FB134409FB03F24FEA154CD4
:102D78004CEA0444A24207D9E41903F1FF3002D215
:102D8800A24200F2D3800346A41AB4FBF8F008FB71
:102D9800104809FB00F9ACB244EA0842914507D94A
:102DA800D21900F1FF3402D2914500F2BA802046D0
:102DB800C9EB020240EA03409BE731463046BDE8D2
:102DC800F08F07FA0EF7CEF1200C24FA0CF34FEA35
:102DD8001748B3FBF8FA1FFA87F908FB1A3520FAE7
:102DE8000CFC04FA0EF40AFB09FB4CEA040C4FEA4B
:102DF8001C4242EA05439B4500FA0EF50AD9DB1945
:102E08000AF1FF3280F08B809B4540F28880AAF15E
:102E1800020A3B44CBEB0303B3FBF8F008FB103387
:102E280000FB09F41FFA8CFC4CEA03439C4207D9C7
:102E3800DB1900F1FF326ED29C426CD902383B4458
:102E48001C1B40EA0A418BE7C1F1200E8B4022FA95
:102E58000EFC4CEA030C24FA0EF74FEA1C49B7FBA8
:102E6800F9FA1FFA8CF309FB1A7720FA0EF88C404E
:102E78000AFB03F548EA04044FEA144848EA0747FE
:102E8800BD4202FA01F200FA01FB09D917EB0C075F
:102E98000AF1FF3041D2BD423FD9AAF1020A674484
:102EA8007F1BB7FBF9F509FB157705FB03F3A4B204
:102EB80044EA0747BB4208D917EB0C0705F1FF3076
:102EC80027D2BB4225D9023D674445EA0A40A0FB08
:102ED8000289FF1A4F4545464C4614D329D066B39C
:102EE800BBEB050367EB040707FA0EFECB40CF40A8
:102EF8004EEA030386E888000021BDE8F08F2346E8
:102F0800F3E61846DAE6B8EB020569EB0C0401387B
:102F1800E5E70546D9E7104692E78246C0E79246BC
:102F280078E702383A4443E7084604E7023B3C4462
:102F38002AE7C345E7D33C46D1E73146BDE8F08FE1
:102F4800704700BF10B5054C13462CB10A46014620
:102F58000220AFF3008010BD204610BD0000000025
:102F680010B5431E0A44914204D011F8014B03F8EE
:102F7800014FF8E710BD03460244934202D003F81C
:102F8800011BFAE77047000038B5124B05461C686C
:102F9800A36BD3B91820FDF7B1FC43F20E33A0633D
:102FA80003804AF6CD33438041F2342383804EF2C6
:102FB8006D63C3804DF6EC630381052343810B23C6
:102FC800838101220023C0E90423A36B00221D6131
:102FD8005A6138BD80040020024610B513461C789B
:102FE8000132002CFAD1013B11F8012B03F8012F13
:102FF800002AF9D110BD034611F8012B03F8012B63
:10300800002AF9D170470000024B0146186800F009
:1030180003B800BF8004002070B5064608460C4679
:1030280000F00DF8451C29463046FDF787FC06469A
:1030380018B12A462146FFF793FF304670BD034674
:1030480013F8012B002AFBD1181A01387047000029
:103058001D0008085D000808890008088D00080898
:10306800000000007B22426174746572792031226D
:103078003A002C2022426174746572792032223A17
:10308800002C202242696C67652053746174757343
:10309800223A002C202257617465722053656E73A2
:1030A8006F72223A002C2022766F6C744D6574651D
:1030B80072223A007D00426F61744461746100427B
:1030C8006F6174446174615761746572496E426FCF
:1030D800617400426F61744461746142696C676530
:1030E8004F6E00426F61744461746142617474652B
:1030F8007279414C45525421000000000000000044
:10310800000000008D09080897090808A1090808A7
:10311800AB090808B5090808C1090808CD09080855
:10312800D9090808E1090808EB090808F509080899
:103138000000000000000000550A08089F0A08085F
:10314800770A0808570A08087F0A0808870A08083B
:103158008F0A0808970A080800000000000000000D
:10316800FF0A0808230B08082F0B0808B5150808DC
:103178000B0B0808170B0808110B08081D0B08088B
:10318800010B0808050B08080000000000000000FB
:10319800770C08086D0C0808630C0808D50B08089C
:1031A800570C08084B0C08083F0C0808370C08088F
:1031B8002D0C0808230C0808DF0B08080000000085
:1031C80000000000D70C08081B0D0808F50C0808BB
:1031D800B5150808EF0C0808D90C0808E10C080810
:1031E800150D0808E90C0808D30C080800000000B1
:1031F800000000004F0E0808410E0808430E08089A
:103208000000000000000000DD0E0808E30E0808BA
:10321800F90E0808EF0E0808DF0E08085A00252BDB
:103228003033643A253032750025592D256D2D250A
:10323800645425483A254D3A2553257A006173632D
:1032480074696D650066006C6E00666E00636F647D
:10325800650064657461696C000D0A0025303130C1
:103268007520005D20002564002C200028293A20C4
:1032780000205B00636F6465203D200025690064C1
:10328800657461696C73203D200062617564005348
:10329800657269616C0055534253657269616C319E
:1032A800007479706500706172616D00636D64000F
:1032B800696400686E64007374726D0066696C748A
:1032C800006C766C0061646448616E646C657200C1
:1032D80072656D6F766548616E646C657200656EC7
:1032E800756D48616E646C657273004A534F4E5336
:1032F800747265616D4C6F6748616E646C657200CD
:10330800617070006E6F6E6500747261636500694C
:103318006E666F007761726E006572726F72007010
:10332800616E696300616C6C0000000000000000C1
:1033380000000000E9180808EB1808080000000061
:103348000000000000000000000000000000000075
:103358000000000000000000000000000000000065
:103368000000000000000000000000000000000055
:103378000000000000000000000000000000000045
:103388000000000000000000000000000000000035
:1033980000000000000000000000000043000000E2
:1033A800AD040808A5050808410A0808810C0808A2
:1033B8006D15080891150808A5150808D1180808FA
:1033C8006919080899190808C91A08084D1B080836
:0833D800111C0808D51C0808AF
:0833E0007CF8FF7F01000000F2
:0433E80000000000E1
:1033EC00CDCC444180EE3600400D0300C0D401002A
:1033FC000000204160EA0000204E00004532080821
:10340C0000000000443308086433080884330808BB
:10341C0000000000000000000000000000000000A0
:10342C00A4330808000000000000000000000000A9
:10343C000000000000000000000000000000000080
:10344C000000000000000000000000000000000070
:10345C000000000000000000000000000000000060
:04346C002004002018
:10347000FFFFFFFF00000102030405060708090A19
:103480000B0C0D0E0F101112131415161718191A14
:083490001B1C1D1E1F2028005B
:04349800785634121C
:0400000508080018CF
:00000001FF
